:020000040800F2
:10000000F0040020AD010008C71D0008BD1A00085B
:10001000C51D000819050008A52200080000000001
:10002000000000000000000000000000CB1D0008E0
:100030001B05000800000000C91D0008CD1D0008B8
:10004000C7010008C7010008C7010008C701000870
:10005000C7010008C7010008C7010008C701000860
:10006000C7010008C7010008C7010008C701000850
:10007000C7010008C7010008C7010008C701000840
:10008000C7010008C7010008C70100080000000000
:10009000000000000000000000000000C701000890
:1000A000C7010008C7010008C7010008C701000810
:1000B000C7010008C7010008C7010008C701000800
:1000C000C7010008C7010008C7010008C7010008F0
:1000D000C7010008C7010008C701000800000000B0
:1000E000C7010008C7010008C701000800000000A0
:1000F000000000000000000000000000C701000830
:1001000000000000C7010008C7010008C70100087F
:1001100000000000000000000000000000000000DF
:10012000C7010008C7010008C7010008C70100088F
:10013000C7010008000000000000000000000000EF
:10014000000000000000000000000000C7010008DF
:10015000C7010008C7010008C7010008C70100085F
:10016000C7010008C70100080000000000000000EF
:10017000000000000000000000000000000000007F
:1001800000000000C701000800000000000000009F
:10019000C7010008C7010008DFF80CD000F0AAF979
:1001A0000048004795230008F004002006488047D7
:1001B00006480047FEE7FEE7FEE7FEE7FEE7FEE74C
:1001C000FEE7FEE7FEE7FEE7411E00089901000892
:1001D0002DE9F05F0546002092469B46884606467C
:1001E000814640241BE0284641464746224600F00F
:1001F000DCF853465A46C01A914110D311461846AE
:10020000224600F0C3F82D1A67EB01084F4622463C
:100210000120002100F0BAF817EB00094E41201E22
:10022000A4F10104DFDC484631462A464346BDE8D6
:10023000F09FD2B201E000F8012B491EFBD27047BB
:100240000022F6E710B513460A4604461946FFF7A2
:10025000F0FF204610BD2DE9FE4F81EA030404F0B3
:10026000004421F0004100944FF0000B23F00043C4
:1002700050EA01045ED052EA03045BD0C3F30A548F
:10028000C1F30A552C44A4F2F3340194A0FB0254A8
:10029000C1F3130141F48011C3F3130343F480133A
:1002A00001FB024400FB034E840A970A44EA81548E
:1002B00047EA8357A4FB076802958D0A05FB07856B
:1002C0004FEA932C04FB0C542705029D4FEA065875
:1002D00047EA1637B5EB08056EEB070C870E920E52
:1002E00047EA811742EA8312A7FB0201B6EB0B0132
:1002F00064EB00042B0D43EA0C335E1844EB1C50F6
:10030000DA465146E7FB0201C5F313044FEA0B330B
:1003100043EA14534FEA0432019C43EA0603A4F172
:100320000C040294009CCDE900B400F094F803B0F2
:10033000BDE8F08F00200146F9E70EB540F23341E9
:1003400002910021CDE900110A460B4600F083F826
:1003500003B000BD01F0004330B421F0004150EA89
:10036000010206D00A0DA2F56072C1F31301002A42
:1003700002DC30BC00207047440F44EAC104C100D5
:10038000E01830BC00EBC25000F01FB8202A04DB9C
:10039000203A00FA02F1002070479140C2F1200398
:1003A00020FA03F3194390407047202A04DB203AD7
:1003B00021FA02F00021704721FA02F3D040C2F185
:1003C000200291400843194670470029A8BF704792
:1003D000401C490008BF20F00100704710B4B0FA7B
:1003E00080FC00FA0CF050EA010404BF10BC704716
:1003F00049B1CCF1200421FA04F411FA0CF118BF30
:10040000012121430843A3EB0C01CB1D4FEA0061FE
:100410004FEA102042BF002010BC704700EBC350D1
:1004200010440029A4BF10BC7047401C490008BFFD
:1004300020F0010010BC704710B5141E73F10004C9
:1004400008DA401C41F1000192185B411A4301D1C6
:1004500020F0010010BD2DE9F04D92469B4611B1F0
:10046000B1FA81F202E0B0FA80F220329046FFF752
:100470008DFF04460F4640EA0A0041EA0B0153464D
:100480005A46084313D0114653EA010019D0C8F167
:1004900040025046FFF789FF05460E465046594632
:1004A0004246FFF773FF084305D0012004E02046D1
:1004B0003946BDE8F08D0020054346EAE0762C433E
:1004C00037430A986305E40AA0EB08000022FD0AFE
:1004D00044EA47540A3002D500200146E9E7010505
:1004E00010196941DDE9084500196941BDE8F04D81
:1004F000A2E70000064C074D06E0E06840F001036B
:1005000094E8070098471034AC42F6D3FFF748FE52
:100510008C280008AC280008FEE770472DE9F84F4A
:10052000044691480D46844212D0904884420FD030
:100530008F4884420CD08F48844209D08E48844230
:1005400006D08E48844203D0B3218D4801F0CAFE04
:1005500028680104090C01D0000C03D0B42188489C
:1005600001F0C0FE6868F8B101281DD011281BD029
:10057000022819D0122817D08249884214D0824903
:10058000884211D0814988420ED0814988420BD0DF
:100590008049884208D08049884205D0032803D08A
:1005A000B521774801F09EFEA86838B1012805D032
:1005B000022803D0B621724801F094FE00264FF0C5
:1005C000010B00BF0BFA06F02F6882460740574523
:1005D0007ED16868022801D0122828D12869C8B1C4
:1005E000092817D0012815D0022813D0042811D0CB
:1005F00005280FD006280DD007280BD0082809D0D1
:100600000A2807D00C2805D00F2803D0C7215C4842
:1006100001F068FEF00804EB8002106A7107CB0E4F
:100620000F2199408843296999400143116220684C
:100630007200032101FA02F82979914601F00301C1
:1006400020EA080001FA09F10143216068680128E5
:1006500005D0022803D0112801D012281CD1E86847
:1006600048B1012807D0022805D0032803D0DA2199
:10067000434801F037FEA068E96820EA080001FA63
:1006800009F10143A1606068297920EA0A00C1F3F9
:100690000011B14001436160E068A96820EA0800E8
:1006A00001FA09F10143E1606868C00056D53B4892
:1006B000016841F480410160006826F0030100F404
:1006C0008040009036480B18D3F80808B10700E0C6
:1006D00044E00A0F0F219140884323498C4201D105
:1006E000002114E021498C4201D101210FE0204971
:1006F0008C4201D102210AE01E498C4201D1032122
:1007000005E01D498C4201D1042100E00721914000
:100710000143C3F80818234908686A68B843D2033C
:1007200000D5384308601F49091D08686A68B84346
:10073000920300D5384308601A49083108686A688E
:10074000B843D20200D53843086016490C31086816
:100750006A68B843920200D538430860761C102EB0
:10076000FFF430AFBDE8F88F000002400004024003
:1007700000080240000C024000100240001C024031
:100780009027000800001110000021100000311017
:100790000000121000002210000032104438024005
:1007A00000300140003C014070B50C00054604D10A
:1007B0004FF4BF71034801F095FD2869204000D037
:1007C000012070BD9027000870B515460C00064644
:1007D00004D140F29F11084801F084FD45B1012D7C
:1007E00004D04FF4D071044801F07CFDB46170BDB9
:1007F0002004B06170BD00009027000801488068A7
:10080000704700000800002070B5040077D08549CB
:10081000206888420AD08449884207D083498842A8
:1008200004D040F2BB11824801F05CFD6068814950
:10083000401E884204D94FF4DE717D4801F052FD1C
:10084000A0684FF4804530B1A84204D040F2BD11F9
:10085000774801F047FDE068800A04D04FF4DF716B
:10086000734801F03FFD2069A84207D0B0F5404F22
:1008700004D040F2BF116E4801F034FD606930B120
:10088000012804D04FF4E071694801F02BFDA06904
:1008900030F0FE0004D040F2C111654801F022FDA5
:1008A000E06930B1402804D04FF4E171604801F0B4
:1008B00019FD206A30B1802804D040F2C3115C4891
:1008C00001F010FD94F83D00002520B984F83C505B
:1008D000204600F04FF9242084F83D00206801688C
:1008E00021F00101016000F035FB534A616891423B
:1008F00002D8524901E002E05149884201D2012068
:1009000070BD50492368B0FBF1F15E6826F03F06E8
:100910000E435E606368934206D94FF49673594361
:100920004FF47A73B1FBF3F12368491C1E6A26F079
:100930003F06314319626168914210D84900401E58
:10094000B0FBF1F2521CC2F30B02042A01D20420C4
:1009500022E0B0FBF1F0401CC0F30B001CE0A368E8
:10096000F3B301EBC10202EB0116421EB2FBF6F239
:10097000521C42F48042120549D093B301EBC102EC
:1009800002EB0111401EB0FBF1F0401CC0F30B0064
:1009900040F4804040F400402168CA694CF6FF737F
:1009A0009A431043C861D4E90701084321680A68E3
:1009B00022F0C00210430860D4E903100843216804
:1009C0008A6848F2FF339A4310438860D4E90501EE
:1009D00008432168CA6822F0FF021043C86001E0A2
:1009E0000EE016E02068016841F001010160256415
:1009F000202084F83D00256384F83E50002070BD1F
:100A000001EB4106421EB2FBF6F2521CB3E7012095
:100A1000C2E701EB4101401EB0FBF1F0401CC0F306
:100A20000B00B7E70054004000580040005C004055
:100A3000202500087F1A0600A086010080841E0081
:100A400000093D0040420F002DE9F84F1F46904637
:100A50008A460446DDF82890FFF7D0FE054694F854
:100A60003D0020287FD119230122404920460095CE
:100A700001F0A6F8002876D194F83C00012872D045
:100A8000012084F83C0020680168C90703D101688F
:100A900041F0010101602068016821F400610160FA
:100AA000212084F83D00102084F83E0000262664B2
:100AB000C4F824806785608D20852D48E0622B4630
:100AC0004A465146204601F011F890B92068416924
:100AD0008069009036E02A464946204601F0EFF84A
:100AE00050B1206C042804D12068016841F40071E1
:100AF00001600120BDE8F88F606A21680078086114
:100B0000606A401C6062618D491E6185218D491EAD
:100B100089B2218522685369DB435B070BD451B14D
:100B200000781061606A401C6062608D401E6085C4
:100B3000208D401E20852A464946204601F01AF89D
:100B40000028CED1208D0028C5D154F83D0B016876
:100B500041F400710160202004F81E09E6776677F1
:100B60000020C7E7FFE70220C4E7000002001000F2
:100B70000000FFFF10B586B0044614216846FFF759
:100B80005FFB13492068884220D11248016841F078
:100B9000020101600068694600F002000590C02073
:100BA0000090122001900120029003200390042065
:100BB00004900948FFF7B2FC06481030016841F480
:100BC00000110160006800F40010059006B010BD2F
:100BD000005400403038024000040240024881685E
:100BE0000278114481607047080000200B4810B55E
:100BF000016841F400710160016841F480610160A5
:100C0000016841F480710160032000F075F8002054
:100C100000F006F800F024F8002010BD003C02406F
:100C200070B50D4D04464FF47A712878B1FBF0F0A1
:100C30000A490968B1FBF0F000F0F1FB48B9102C4B
:100C400007D200222146501E00F022F800206C60DE
:100C500070BD012070BD00000800002014000020BD
:100C60000A4808B5016841F480410160006800F459
:100C7000804000900548001F016841F080510160EC
:100C8000006800F08050009008BD00004438024029
:100C900070B515460C460646102A03D3AA211448FF
:100CA00001F020FB102C03D3AB21114801F01AFBFB
:100CB00010480068C0F30223C3F107022046042A4B
:100CC00000D90422191D072901D2002300E0DB1EF0
:100CD000012404FA02F1491E014099409C40641E1F
:100CE0002C4021433046BDE8704001F0DCBA0000E2
:100CF0000C2800080CED00E010B5044607280BD0C6
:100D0000062C09D0052C07D0042C05D0032C03D0C9
:100D10009221084801F0E6FA074904F00702086842
:100D20004FF6FF03184040EA0220044A10430860CF
:100D300010BD00000C2800080CED00E00000FA05D2
:100D40002DE9F0470E4604007DD02068401E0E2895
:100D500004D94FF410717A4801F0C4FA96B1012E0B
:100D600010D0022E0ED0032E0CD0042E0AD0052E49
:100D700008D0062E06D0072E04D040F2412170483C
:100D800001F0B0FADFF8BC81D8F80000F7B200F04B
:100D90000F00B04207D288F80070D8F8000000F0C9
:100DA0000F00B0424FD12068674D810729D5400719
:100DB00003D5286840F4E05028602078000703D568
:100DC000286840F460402860A068A0B1802812D054
:100DD000902810D0A0280ED0B0280CD0C0280AD05F
:100DE000D02808D0E02806D0F02804D04FF419719C
:100DF000534801F077FA2868A16820F0F000084312
:100E000028602078C00743D0DFF83C916068A9F1E2
:100E1000080988B1012822D0022824D0032822D032
:100E200040F26B21464801F05DFA6068012816D057
:100E3000022818D0032816D0D9F80000800700280F
:100E400033DA286800E030E0616820F003000843EE
:100E50002860FFF7D3FC814641F2883A11E0D9F8C7
:100E600000008003EBE7D9F800008001E7E700BF4E
:100E7000FFF7C4FCA0EB0901514502D90320BDE8EE
:100E8000F0872868616800F00C00B0EB810FEFD1AB
:100E9000D8F80010404601F00F01B14207D90770A1
:100EA000006800F00F00B04201D00120E7E7207891
:100EB0004FF4805640074FF4A0574FF4C0584FF4FA
:100EC000E05914D5E06860B1B0420AD0B84208D009
:100ED000404506D0484504D040F2A921184801F009
:100EE00001FA2868E16820F4E0500843286020787F
:100EF000000715D5206960B1B0420AD0B84208D0C9
:100F0000404506D0484504D04FF42C710C4801F000
:100F1000E9F92868216920F4604040EAC1002860AE
:100F200000F038F82968094AC1F30311515CC84040
:100F3000074908600020FFF773FE00209FE70000CC
:100F400014270008003C0240083802400825000829
:100F5000140000200448054900680968044AC1F3E8
:100F60008221515CC84070471400002008380240BC
:100F7000182500080448054900680968044AC1F3B7
:100F80004231515CC84070471400002008380240CC
:100F900018250008154810B5006810F00C02144818
:100FA00013D01449042A0FD0082A0ED10F4C241F45
:100FB0002268236802F03F025B0207D52068C0F375
:100FC0008810A0FB010106E0084610BD2168C1F3AE
:100FD0008811A1FB00010023FFF7FAF82168C1F393
:100FE0000141491C4900B0FBF1F010BD0838024036
:100FF0000024F40040787D012DE9F84F04007DD0F5
:1010000020680F2803D9E821F64801F06BF9207811
:10101000DFF8D4B3F54DC00756D060684FF4803682
:101020004FF4A02738B1B04205D0B84203D0ED212B
:10103000EC4801F057F9DBF800105846C1F3810184
:10104000012909D00068C0F3810002280BD1E648CD
:10105000001F0068400206D52868800334D5606808
:101060000028CCD030E06068B04203D1286840F45A
:1010700080300CE0B842286803D140F4802028601A
:10108000F4E720F480302860286820F4802028606D
:10109000606860B1FFF7B2FB064604E0FFF7AEFB05
:1010A000801B64287ED828688003F7D50CE0FFF702
:1010B000A5FB064605E000BFFFF7A0FB801B6428E8
:1010C000F0D828688003F7D42078DFF824838007DD
:1010D0004FF0000956D5E06830B1012804D040F245
:1010E0001F11C04801F0FEF820691F2804D94FF4F1
:1010F0009071BC4801F0F6F8584600E092E0DBF849
:10110000001011F00C0F09D00068C0F38100022814
:1011100011D1B548001F006840020CD42868800730
:1011200002D5E06801287DD12868216920F0F80007
:1011300040EAC10016E0E068B0B10120C8F8000044
:10114000FFF75CFB064604E0FFF758FB801B022814
:10115000A8D828688007F7D5286820F0F80120690A
:1011600041EAC00028600DE0C8F80090FFF746FB98
:10117000064604E0FFF742FB801B022892D828684D
:101180008007F7D4207800072ED5974E994F6069D5
:101190006C36D0B1012808D04FF4B071914801F0FD
:1011A000A1F800E0D6E0606978B101203860FFF76F
:1011B00025FB074605E000BFFFF720FBC01B022808
:1011C000C6D830688007F7D50EE0C7F80090FFF763
:1011D00015FB074605E000BFFFF710FBC01B022808
:1011E000B6D830688007F7D42078400776D5A06855
:1011F000002740B1012806D0052804D04FF4C6715D
:10120000784801F06FF8DFF8E0A10AF1380ADAF85F
:101210000000C0000DD4DAF8001041F08051CAF887
:10122000001000E0DDE0DAF80000012700F0805057
:101230000090714E3068C00511D4306840F4807061
:101240003060FFF7DBFA009006E000BFFFF7D6FA48
:101250000099401A02287DD83068C005F6D5624E44
:10126000A068683601280FD00528306810D020F01B
:1012700001003060306820F004003060A068B8B130
:10128000FFF7BCFA00900FE0306840F00100F4E78F
:1012900040F004003060F7E7FFF7B0FA0099411A18
:1012A00041F28830814255D830688007F4D50EE08D
:1012B000FFF7A4FA009007E0FFF7A0FA0099411A9F
:1012C00041F28830814245D830688007F4D42FB18C
:1012D000DAF8001021F08051CAF80010A069D0B3EC
:1012E000012808D0022806D040F2CF113D4800F076
:1012F000F9FFA06978B3DBF80000C0F38100022891
:101300006FD0A069022805D0C8F86090FFF776FA80
:1013100004467DE0E06938B1B0F5800F04D04FF4A9
:10132000EC71304800F0DEFF206A3F2804D940F21B
:10133000D9112C4800F0D6FF606AC038F02804D9D3
:101340004FF4ED71274800F0CDFFA06A02280DD0C0
:10135000042801E059E05EE008D0062806D00828FD
:1013600004D040F2DB111F4800F0BCFFE06A801E91
:101370000D2804D94FF4EE711A4800F0B3FF474628
:10138000C8F86090FFF73AFA064604E0FFF736FA2D
:10139000801B022839D828688001F7D4D4E90701D6
:1013A0000843A16A154A490802EB0141626A41EA11
:1013B0008211084394F82C1040EA01610A48001F8A
:1013C000016001203866FFF719FA044605E000BF06
:1013D000FFF714FA001B022817D828688001F7D5F8
:1013E00019E01AE0142700080838024000380240CB
:1013F00000004742800E4742007000400000FFFF9F
:10140000FFF7FCF9001B022802D90320BDE8F88F82
:1014100028688001F4D40020F8E70120F6E710B531
:10142000401EB0F1807F01D3012010BD4FF0E024B9
:1014300060610F21601700F036FF0020A0610720D7
:101440002061002010BD000070B50D460446006804
:101450002849884210D0B0F1804F0DD026498842EB
:101460000AD02649884207D02549884204D040F254
:101470006161244800F036FF286890B1102810D030
:1014800020280ED030280CD040280AD0502808D070
:10149000602806D0702804D040F26261194800F03C
:1014A00021FF6868802805D020B140F263611548AB
:1014B00000F018FF94F83C00012818D0012304F82C
:1014C0003C3F0220607054F83C1C48688A6820F059
:1014D00070062868304322F080066A68486032430C
:1014E00054F83C0C826063700020207070BD0220B4
:1014F00070BD0000000001400004004000080040F2
:10150000000C00401826000810B5040046D02D49F4
:101510002068884219D0B0F1804F16D02A498842FD
:1015200013D02A49884210D0294988420DD0294930
:1015300088420AD02849884207D02849884204D0E6
:101540004FF48571264800F0CDFEA06860B11028E8
:101550000AD0202808D0402806D0602804D040F2C5
:101560000B111F4800F0BEFE206950B1B0F5807F1E
:1015700007D0B0F5007F04D04FF48671184800F012
:10158000B1FEA06930B1802804D040F20D1114489A
:1015900000F0A8FE94F83D0010B107E0012010BD56
:1015A000002084F83C00204600F01CF8022084F85B
:1015B0003D00211D206800F06DFC012084F83D00F5
:1015C000002010BD00000140000400400008004061
:1015D000000C004000400140004401400048014030
:1015E0009C25000808B500680649884208D10648CD
:1015F000016841F004010160006800F004000090FF
:1016000008BD000000080040403802402DE9F05FAE
:10161000054690F83C000C4601283FD04FF0010BE6
:1016200085F83CB0022085F83D0020684FF48059D1
:101630004FF4005A484515D0504513D090B11028AA
:1016400010D020280ED030280CD040280AD05028A6
:1016500008D0602806D0702804D041F27711B9482C
:1016600000F040FE2868816821F0770121F47F4175
:1016700081602068B449B54AB54BB64EB64F4FF0BD
:10168000804C4FF40048502870D00FDC202804D044
:1016900007DC0028FBD010284ED13EE10220BDE837
:1016A000F09F3028F9D04028F6D107E160287DD09E
:1016B00070285CD0484540D05045EDD1286888421C
:1016C0000CD060450AD0904208D0984206D0B04273
:1016D00004D041F2A2119B4800F004FEA06858B16A
:1016E000484509D0504507D0B0F5405F04D041F2DD
:1016F000A511944800F0F6FD6068404509D040B15E
:10170000022806D00A2804D041F2A6118D4800F024
:10171000E9FDE0680F2804D941F2A711894800F0DB
:10172000E1FDD4E90121E368286800F0FFFB2868A7
:10173000816841F480418160BAE02868884214D011
:10174000604512D0904210D098420ED0B0420CD0DA
:10175000B8420AD08149884207D08149884204D0E2
:1017600041F28311774800F0BDFDA1E041E0286817
:1017700088420ED060450CD090420AD0984208D0E2
:10178000B04206D0B84204D041F28A116D4800F050
:10179000A9FDA06868B148450BD0504509D0B0F507
:1017A000405F06D041F28D11664800E050E000F045
:1017B00099FD6068404509D040B1022806D00A284A
:1017C00004D041F28E115F4800F08CFDE0680F28D4
:1017D00004D941F28F115B4800F084FDD4E9012166
:1017E000E368286800F0A2FB2868816841F077016F
:1017F000A1E7286888420ED060450CD090420AD0FC
:10180000984208D0B04206D0B84204D041F2B61196
:101810004C4800F067FD6068404509D040B102289F
:1018200006D00A2804D041F2B911464800F05AFD0A
:10183000E0680F2804D941F2BA11424800F052FD85
:10184000E2686168286800F083FB502128682DE079
:10185000286888420ED060450CD090420AD0984249
:1018600008D0B04206D0B84204D041F2C611354883
:1018700000F038FD6068404509D040B1022806D02C
:101880000A2804D041F2C9112E4800F02BFDE0686F
:101890000F2804D941F2CA112A4800F023FDE2685A
:1018A0006168286800F065FB6021286800F048FB4B
:1018B00085F83DB0002085F83C00F0E628688842B5
:1018C0000ED060450CD090420AD0984208D0B04269
:1018D00006D0B84204D041F2D6111A4800F002FDF9
:1018E0006068404509D040B1022806D00A2804D0DB
:1018F00041F2D911134800F0F5FCE0680F2804D933
:1019000041F2DA110F4800F0EDFCE26861682868E6
:1019100000F01EFB40212868C8E7286888420ED0E6
:1019200060450CD090420AD0984208D0B04206D010
:10193000B84204D041F2E911024800F0D3FC21681A
:101940002868B3E79C25000800000140000400401F
:1019500000080040000C00400040014000440140ED
:101960000048014070B5040020D0A0693549002826
:10197000354A364B20681BD088420AD0904208D0A6
:10198000984206D040F24911314800F0ABFCA06902
:10199000C8B1A069B0F5807F15D0B0F5007F12D036
:1019A000B0F5407F0FD04FF4A57109E0012070BD64
:1019B000884208D0904206D0984204D04FF4A771D4
:1019C000234800F08FFCA06838B1B0F5805F04D0E8
:1019D0004FF4A8711E4800F085FCE06938B1B0F5FD
:1019E000004F04D040F25111194800F07BFC94F8EC
:1019F0003900002520B984F83850204600F02AF834
:101A0000242084F839002068C16821F40051C160A5
:101A1000204600F0C1FA2068016921F4904101617B
:101A20002068416921F02A0141612068C16841F4C0
:101A30000051C160E563202084F8390084F83A0041
:101A4000002070BD0010014000440040001401401F
:101A50009826000810B586B0044614216846FEF7A3
:101A6000EFFB13492068884220D11248016841F4F5
:101A700000310160006800F4003005900D48103816
:101A8000016841F0010101600068694600F0010051
:101A900005900C200090022001900120029003206C
:101AA0000390072004900448FEF738FD06B010BDEF
:101AB000004400404038024000000240FEE7016858
:101AC0004A69D24352050FD46FF480624A61002103
:101AD00040F8301F202242738173026942F00402F1
:101AE000026101730120704700207047F8B5044679
:101AF000C06A1E460D461746082807D0012805D0A3
:101B000010F5803F02D0206B122804D120680168B4
:101B100041F480710160134600224FF0011120460C
:101B2000009600F04DF808BB2069B0F5804F0ED04C
:101B30000620216800EAD51040F0F0000861334625
:101B40003A460B49204600F06FF878B902E005F0FC
:101B5000FE0000E0E8B221680861054933463A46D4
:101B6000891F204600F060F8002800D00120F8BD51
:101B70000800010070B516460D4604460DE02046EB
:101B8000FFF79DFF08B1012070BD681C05D0FEF76E
:101B900035FE801BA84207D835B120684069C04394
:101BA0004007ECD4002070BD002044F8300F202105
:101BB0006173A073216941F0200121612073E2E784
:101BC0002DE9F0471E4690460D460446C1F30747EF
:101BD000DDF8209008E0701C06D0FEF70FFEA0EBA9
:101BE0000900B0420FD876B12068012F18D0806963
:101BF00025EA00000004000C14D000214145EAD081
:101C00000020BDE8F087002044F8300F20216173E8
:101C1000A073216941F02001216120730120F0E7C8
:101C20004069E5E70121E9E72DE9F0479A46914649
:101C30000E46044600254FF02008C1F3074725E073
:101C400020684069C043400514D42068016841F40D
:101C50000071016021686FF480604861256384F839
:101C60003D8084F83E50206C40F00400206484F8ED
:101C70003C501FE0B9F1FF3F08D0FEF7BFFDA0EBDD
:101C80000A0149450CD8B9F1000F09D02068012F8D
:101C900013D0806926EA00000004000C0BD0CFE7C7
:101CA00044F8305F84F80D80A573206940F020006F
:101CB000206125730120BDE8F0874069EAE770B52F
:101CC00016460D4604460DE02046FFF7F8FE08B123
:101CD000012070BD681C05D0FEF790FD801BA84256
:101CE00007D835B120684069C0430006ECD4002015
:101CF00070BD002044F8300F20216173A07321696A
:101D000041F0200121612073E2E7000030B587B087
:101D100014216846FEF794FA15480024016841F042
:101D200001010160016801F001010591016841F0C4
:101D30000201016000680F4D00F00200059022468C
:101D400080212846FEF740FD4020CDE90004694689
:101D500028460294FEF7E2FB802000900120CDE9A6
:101D60000104694628460394FEF7D8FB07B030BD4E
:101D7000303802400000024010B586B00024104800
:101D8000009401940294039404940C490594C0E9CE
:101D900000148460C46004618461FFF7B5FB4FF4F4
:101DA0008050009069460648FFF730FC049404A96F
:101DB00003480594FFF748FB06B010BD000800403B
:101DC0006C000020FEE7704770477047FEF706BFC3
:101DD00010B592B030216846FEF732FA14210CA8F3
:101DE000FEF72EFA14480024016841F0805101608A
:101DF000006800F0805011901048016841F44041A3
:101E000001600068069400F44040119002200090A8
:101E100001200390102004906846FFF7EDF80F2092
:101E2000CDE90C040E940F9400210CA81094FEF739
:101E300087FF12B010BD0000403802400070004023
:101E40001048016841F4700101600F48016841F0D9
:101E5000010101600C4A00210832116002680B4B3D
:101E60001A400260031D0A4A1A60026822F48022A6
:101E7000026005480C30016002495806803908604C
:101E80007047000088ED00E000380240FFFFF6FEDA
:101E900010300024F0B502681D4B1E4C9F031E4DF0
:101EA0001E4E984207D0B84205D0A04203D0A842A7
:101EB00001D0B04204D122F0700C4A6842EA0C0210
:101EC000984210D0B8420ED0A0420CD0A8420AD0FE
:101ED000B04208D0124CA04205D0124CA04202D011
:101EE000114CA04203D122F44074CA6822434C69C9
:101EF00022F08002224302608A68C2620A6882621B
:101F0000984201D10969016301214161F0BD0000DE
:101F1000000001400004004000080040000C0040A8
:101F200000400140004401400048014010B5846871
:101F300042EA032224F47F440A432243826010BD14
:101F4000826822F070020A4342F007018160704704
:101F500010B5036A046A24F001040462846924F061
:101F6000F00444EA021423F00A020A438461026284
:101F700010BD10B5036A23F0100303628369046A7D
:101F800023F4704343EA023224F0A00343EA011130
:101F90008261016210BD00002DE9F04104464068F5
:101FA000BC49884204D940F6E531BB4800F09AF9B3
:101FB000E06838B1B0F5005F04D040F6E631B648CD
:101FC00000F090F9206950B1B0F5806F07D0B0F5FE
:101FD000C06F04D040F6E731AF4800F083F9606984
:101FE0004FF6F371084200D120B940F6E831AA4813
:101FF00000F078F920680169E26821F4405111434A
:1020000001612169A068E2690843616911430843DD
:102010002168CA6849F20C639A430243CA60206887
:102020004169A26921F4407111434161E26964256B
:10203000B2F5004F99489A4922684FF032083FD0D4
:102040008A4201D082427CD1FEF794FF00EBC001AE
:1020500001EB001061688900B0FBF1F6FEF78AFF22
:1020600000EBC00101EB001061688900B0FBF1F0EA
:10207000B0FBF5F06FF01801484306EB800108EB68
:102080000110B0FBF5F000F0F006FEF773FF00EB77
:10209000C00101EB001061688900B0FBF1F0B0FBFA
:1020A000F5F006EB0016FEF765FF00EBC00101EB53
:1020B000001061688900B0FBF1F7FEF75BFFD2E02A
:1020C0008A4201D082423DD1FEF754FF00EBC001AD
:1020D00001EB001061684900B0FBF1F0B0FBF5F0D6
:1020E0000601FEF747FF00EBC00101EB001061683D
:1020F0004900B0FBF1F7FEF73DFF00EBC00101EB3B
:10210000001061684900B0FBF1F0B0FBF5F06FF032
:102110001801484307EB800108EBC100B0FBF5F064
:1021200000F0F80006EB4006FEF724FF00EBC001CC
:1021300001EB001061684900B0FBF1F7FEF71AFFF0
:102140003CE055E0FEF706FF00EBC00101EB00109C
:1021500061684900B0FBF1F0B0FBF5F00601FEF755
:10216000F9FE00EBC00101EB001061684900B0FB13
:10217000F1F7FEF7EFFE00EBC00101EB0010616824
:102180004900B0FBF1F0B0FBF5F06FF018014843E7
:1021900007EB800108EBC100B0FBF5F000F0F800A0
:1021A00006EB4006FEF7D6FE00EBC00101EB001087
:1021B00061684900B0FBF1F7FEF7CCFE00EBC0010F
:1021C00001EB001061684900B0FBF1F0B0FBF5F0E5
:1021D0006FF01801484307EB800108EBC100B0FB2A
:1021E000F5F000F00700216830448860BDE8F08118
:1021F000FEF7B0FE00EBC00101EB00106168890042
:10220000B0FBF1F6FEF7A6FE00EBC00101EB0010FB
:1022100061688900B0FBF1F0B0FBF5F06FF01801D8
:10222000484306EB800108EB0110B0FBF5F000F02D
:10223000F006FEF78FFE00EBC00101EB00106168B5
:102240008900B0FBF1F0B0FBF5F006EB0016FEF7ED
:1022500081FE00EBC00101EB001061688900B0FB5A
:10226000F1F7FEF777FE00EBC00101EB00106168AB
:102270008900B0FBF1F0B0FBF5F06FF018014843B6
:1022800007EB800108EB0110B0FBF5F000F00F0048
:10229000A9E70000A037A00098260008001401401C
:1022A00000100140FEE70907090E002804DB00F1D9
:1022B000E02080F80014704700F00F0000F1E020EB
:1022C00080F8141D704702E008C8121F08C1002AD8
:1022D000FAD170477047002001E001C1121F002AA7
:1022E000FBD17047704710B5022000F00BF8282092
:1022F00000F008F80C2000F005F8BDE81040802040
:10230000AFF300801CB500F0F00141F004028DF83D
:10231000042000018DF8051040F004018DF806102E
:102320008DF8070064200090042301AA4E21024882
:10233000FEF78AFB1CBD00001800002000B500F06D
:10234000F0018FB041F005028DF8042041F0010149
:1023500000018DF8051040F005018DF8061040F0E1
:1023600001008DF8070064200090322301AA4E215D
:102370000248FEF769FB0FB000BD00001800002006
:1023800010B5044602E0641CFFF7D8FF207800284F
:10239000F9D110BDFEF72AFCFFF7A5FFFFF718FDE6
:1023A000FFF7B4FC3A483949002401603949C0E9D3
:1023B00001144FF48041C0E9034144618461C46168
:1023C0000462FEF721FA32483349943001604FF439
:1023D000E131C0E901140C21C460C0E90441846109
:1023E000C461FFF7BFFAFFF7C7FCFFF77CFF2B4E76
:1023F0002B4D002280213046FEF7E6F9032000F045
:1024000063F8012280213046FEF7DEF90A2000F051
:102410005BF8002280213046FEF7D6F94021304695
:10242000FEF7C2F90028F9D02C7004E0401C287097
:10243000022000F049F840213046FEF7B5F90128A6
:102440002878F3D0FDF779FF9FED161B53EC112B85
:10245000FDF701FF9FED151B53EC112BFDF7FBFE64
:10246000FDF778FF68608020FFF74CFF11A0FFF7B1
:1024700087FFC020FFF746FF95ED010ABCEEC00ABA
:1024800010EE100AC0B2FFF759FFB2E70054004047
:1024900018000020A0860100004400400000024017
:1024A0000000002066666666666606400000000062
:1024B000C58F913F64697374616E636520696E2096
:1024C000636D206973000000022800D202200D49CC
:1024D000401E08600B49012018390860081F016878
:1024E00021F00101016007492C390A6842F001021C
:1024F0000A600168C907FCD0016821F00101016090
:10250000704700002C0800400000000000000000A0
:102510000102030406070809000000000102030489
:10252000433A2F55736572732F4E656572616A5F0A
:1025300042616468616E692F53544D333243756252
:10254000652F5265706F7369746F72792F53544D94
:102550003332437562655F46575F46345F56312EAE
:1025600032342E312F447269766572732F53544D75
:102570003332463478785F48414C5F4472697665FF
:10258000722F5372632F73746D3332663478785FB1
:1025900068616C5F6932632E63000000433A2F5517
:1025A000736572732F4E656572616A5F426164681C
:1025B000616E692F53544D3332437562652F5265F6
:1025C000706F7369746F72792F53544D3332437542
:1025D00062655F46575F46345F56312E32342E3186
:1025E0002F447269766572732F53544D33324634DB
:1025F00078785F48414C5F4472697665722F5372F8
:10260000632F73746D3332663478785F68616C5F02
:1026100074696D2E63000000433A2F557365727321
:102620002F4E656572616A5F42616468616E692FF1
:1026300053544D3332437562652F5265706F736921
:10264000746F72792F53544D3332437562655F4610
:10265000575F46345F56312E32342E312F44726923
:10266000766572732F53544D3332463478785F4811
:10267000414C5F4472697665722F5372632F737495
:102680006D3332663478785F68616C5F74696D5F52
:1026900065782E6300000000433A2F55736572730E
:1026A0002F4E656572616A5F42616468616E692F71
:1026B00053544D3332437562652F5265706F7369A1
:1026C000746F72792F53544D3332437562655F4690
:1026D000575F46345F56312E32342E312F447269A3
:1026E000766572732F53544D3332463478785F4891
:1026F000414C5F4472697665722F5372632F737415
:102700006D3332663478785F68616C5F75617274BE
:102710002E630000433A2F55736572732F4E656523
:1027200072616A5F42616468616E692F53544D3310
:1027300032437562652F5265706F7369746F727979
:102740002F53544D3332437562655F46575F4634AD
:102750005F56312E32342E312F4472697665727392
:102760002F53544D3332463478785F48414C5F44A0
:1027700072697665722F5372632F73746D3332668C
:102780003478785F68616C5F7263632E6300000069
:10279000433A2F55736572732F4E656572616A5F98
:1027A00042616468616E692F53544D3332437562E0
:1027B000652F5265706F7369746F72792F53544D22
:1027C0003332437562655F46575F46345F56312E3C
:1027D00032342E312F447269766572732F53544D03
:1027E0003332463478785F48414C5F44726976658D
:1027F000722F5372632F73746D3332663478785F3F
:1028000068616C5F6770696F2E630000433A2F55F3
:10281000736572732F4E656572616A5F42616468A9
:10282000616E692F53544D3332437562652F526583
:10283000706F7369746F72792F53544D33324375CF
:1028400062655F46575F46345F56312E32342E3113
:102850002F447269766572732F53544D3332463468
:1028600078785F48414C5F4472697665722F537285
:10287000632F73746D3332663478785F68616C5F90
:10288000636F727465782E6300000000AC28000846
:102890000000002018000000C6220008C42800081C
:1028A00018000020D8040000D62200080000000014
:1028B0000000000001000000100000000000000007
:0428C0000024F400FC
:040000050800019955
:00000001FF
